:100400000800DE02A4042209510250072904500406
:100410002903260750012604290350042904260431
:10042000260D5002500729045004290326075001C5
:1004300026042903500429042604260D50025007DF
:1004400029045004290328075001280429035004D3
:1004500029042804280D5002290350082B042B0DD1
:100460005002280350082904290D5002500729047E
:1004700050042903260750012604290350042904A7
:100480002604260D5002500729045004290326078C
:10049000500126042903500429042604260D500285
:1004A0005007290450042903280750012804290370
:1004B000500429042804280D5002290350082B0455
:1004C0002B0D5002280350082904290D5002260F35
:1004D0002D0F2D0D5002300450012F0550012D031A
:1004E0002B0F2B0B50012D03291A5004290F350F08
:1004F000350D500239055001370550013503340DD3
:100500005002350F351A5004370F370435043404C0
:100510003203350234023202300234023202300237
:100520002F01320230022F022D0230022F022D0243
:100530002B012F022D022B0224022D022B02290255
:1005400028012B022902280226022902280226025B
:100550002401260224022602280229022802290256
:100560002B012D022B022D022F0230022F0230020E
:1005700034013902350232023902320235023902BF
:1005800032013902320235023902320235023902B1
:1005900032013902350232023902320235023902A1
:1005A0003201390232023502390232023502390291
:1005B00032013B0239023702350239023702350275
:1005C000340137023502340232023502340232027B
:1005D000300130022F022D022F022D022B022D029C
:1005E0002B0129022B02290228022B0229022802B0
:1005F000260139023502320239023502320239024D
:1006000035013902350232023B02350232023B012A
:10061000350239023502320239023502320239011D
:1006200035023902350232023B02350232023B0109
:100630003502370234023202370234023202370105
:10064000340237023402320237023B0237023B01E6
:100650003B023702340232023702340232023701DF
:10066000340237023402320237023B0237023B01C6
:100670003B02510250082904500329042607500167
:1006800026032904500429042603260D500250088D
:100690002904500329042607500126032904500485
:1006A00029042603260D500250082904500329046A
:1006B0002807500128032904500429042803280D81
:1006C0005002290450082B032B0D50022804500817
:1006D0002903290D5002520050085300FF00510217
:1006E00050072603500150042602500121065002F3
:1006F000210350012602500150042603500121031A
:100700005001210B500450072603500150042602CB
:10071000500123065002230350011A0250015004D5
:100720001A0350012104210B500450071A035001F1
:1007300050041A02500118065002180350011A0200
:10074000500150041A0350011804180B50041A02E7
:10075000500150081C041C0B500418025001500892
:100760001A041A0B500450071A03500150041A02BD
:10077000500115065002150350011A025001500491
:100780001A03500115035001150B500450071A03AA
:10079000500150041A02500117065002170350016D
:1007A0000E02500150040E0350011504150B5004A5
:1007B00050070E03500150040E0250010C06500267
:1007C0000C0350010E02500150040E0350010C04A2
:1007D0000C0B50040E02500150081004100B500472
:1007E0000C02500150080E040E0B5004501E501EF7
:1007F000501E501E501E501E501E501E501E501E89
:10080000501E501E501E501E501E501E501E501E78
:10081000501E501E5102500726035001500426025C
:1008200050012106500221035001260250015004BC
:100830002603500121035001210B500450072603C9
:100840005001500426025001230650022303500198
:100850001A02500150041A0350012104210B5004C4
:1008600050071A03500150041A0250011806500292
:10087000180350011A02500150041A0350011804C1
:10088000180B50041A02500150081C041C0B500491
:100890001802500150081A041A0B50045200500755
:1008A0005300FF0051041A0351021A045008500764
:1008B000500850161A041804510417035102170463
:1008C000500850075008501E5104180351021804D4
:1008D000500850075008501E51041A0351021A04C0
:1008E00050085007500851031A0550021A065002CA
:1008F0001A0550021A0650021A0550021A06500232
:100900001A0550021A0650021A0550021A06500221
:100910001A0550021A065002170550021706500217
:10092000170550021706500217055002170650020D
:1009300017055002170650021805500218065002FB
:1009400018055002180650021805500218065002E9
:1009500018055002180650021A0250011A035001DD
:100960001A0350011A0350011A0250011A035001D0
:100970001A0350011A0350011A0250011A035001C0
:100980001A0350011A0350011A0250011A035001B0
:100990001A0350011A0350011A0250011A035001A0
:1009A0001A0350011A0350011A0250011A03500190
:1009B0001A0350011A0350011A0250011A03500180
:1009C0001A0350011A0350011A0250011A03500170
:1009D0001A0350011A0350011C0250011C0350015C
:1009E0001C0350011C0350011C0250011C03500148
:1009F0001C0350011C0350011C0250011C03500138
:100A00001C0350011C0350011C0250011C03500127
:100A10001C0350011C0350011F0250011F03500111
:100A20001F0350011F0350011F0250011F035001FB
:100A30001F0350011F0350011F0250011F035001EB
:100A40001F0350011F0350011F0250011F035001DB
:100A50001F0350011F0350011C0250011C035001D1
:100A60001C0350011C0350011C0250011C035001C7
:100A70001C0350011C0350011C0250011C035001B7
:100A80001C0350011C0350011C0250011C035001A7
:100A90001C0350011C0350011D0250011D03500195
:100AA0001D0350011D0350011D0250011D03500183
:100AB0001D0350011D0350011D0250011D03500173
:100AC0001D0350011D0350011D0250011D03500163
:100AD0001D0350011D0350011F0250011F0350014F
:100AE0001F0350011F0350011F0250011F0350013B
:100AF0001F0350011F0350011F0250011F0350012B
:100B00001F0350011F0350011F0250011F0350011A
:100B10001F0350011F035001230250012303500102
:100B200023035001230350012302500123035001EA
:100B300023035001230350012302500123035001DA
:100B400023035001230350012302500123035001CA
:100B500023035001230350011802500118035001D0
:100B600018035001180350011802500118035001D6
:100B700018035001180350011802500118035001C6
:100B800018035001180350011802500118035001B6
:100B90001803500118035001230250012303500190
:100BA000230350012303500123025001230350016A
:100BB000230350012303500123025001230350015A
:100BC000230350012303500123025001230350014A
:100BD0002303500123035001180250011803500150
:100BE0001803500118035001180250011803500156
:100BF0001803500118035001180250011803500146
:100C00001803500118035001180250011803500135
:100C1000180350011803500151031A0250011A031E
:100C200050011A0350011A0350011A0250011A030D
:100C300050011A0350011A0350011A0250011A03FD
:100C400050011A0350011A0350011A0250011A03ED
:100C500050011A0350011A035001170250011703E3
:100C600050011703500117035001170250011703D9
:100C700050011703500117035001170250011703C9
:100C800050011703500117035001170250011703B9
:100C900050011703500117035001180250011803A7
:100CA0005001180350011803500118025001180395
:100CB0005001180350011803500118025001180385
:100CC0005001180350011803500118025001180375
:100CD000500118035001180350011A0250011A0361
:100CE00050011A0350011A0350011A0250011A034D
:100CF00050011A0350011A0350011A0250011A033D
:100D000050011A0350011A0350011A0250011A032C
:100D100050011A0350011A035001520050035300AE
:100D2000FF00510150074B07500150074B0750017E
:100D300050074B07500150074B07500150074B0716
:100D4000500150074B07500150074B075001500707
:100D50004B07500150074B07500150074B075001FC
:100D600050074B07500150074B07500150074B07E6
:100D7000500150074B07500150074B0750015102DB
:100D80004C0650014C07500150074B0750015007CB
:100D90004C07500150074B07500150074C075001BA
:100DA00050074B07500150074C07500150074B07A5
:100DB000500150074C07500150074B075001500796
:100DC0004C07500150074B07500150074C0750018A
:100DD00050074C07500150074C07500150074C0773
:100DE00050014C014C024C024C024C024C024C0291
:100DF0004C014B0750014C0650014B0750014C066B
:100E000050014B0750014C0650014B0750014C0656
:100E100050014B0750014C0650014B0750014C0646
:100E200050014B0750014C0650014B0750014C0636
:100E300050014B0750014C0650014B0750014C0626
:100E400050014B0750014C0650014B0750014C0616
:100E500050014B0750014C0650014B0750014C0606
:100E600050014C0750014C0650014C024C024C0200
:100E70004C024C024C024C024C014B0750014C06F8
:100E800050014B0750014C0650014B0750014C06D6
:100E900050014B0750014C0650014B0750014C06C6
:100EA00050014B0750014C0650014B0750014C06B6
:100EB00050014B0750014C0650014B0750014C06A6
:100EC00050014B0750014C0650014B0750014C0696
:100ED00050014B0750014C0650014B0750014C0686
:100EE00050014B0750014C0650014B0750014C0676
:100EF00050014B0750014C0650014B0750014C0666
:100F000050014B0750014C0650014B0750014C0655
:100F100050014B0750014C0650014B0750014C0645
:100F200050014B0750014C0650014C0750014C0634
:100F300050014C024C024C024C024C024C024C023E
:100F40004C014B0750014C0650014B0750014C0619
:100F500050014B0750014C0650014B0750014C0605
:100F600050014B0750014C0650014B0750014C06F5
:100F700050014B0750014C0650014B0750014C06E5
:100F800050014B0750014C0650014B0750014C06D5
:100F900050014B0750014C0650014B0750014C06C5
:100FA00050014B0750014C0650014B0750014C06B5
:100FB00050014C0750014C0650014C024C024C02AF
:100FC0004C024C024C024C024C015200500853009F
:060FD000520050FF530027
:00000001FF
